:100000000C9434000C943E000C943E000C943E0082
:100010000C943E000C943E000C943E000C943E0068
:100020000C943E000C943E000C943E000C943E0058
:100030000C943E000C943E000C943E000C943E0048
:100040000C943E000C943E000C943E000C943E0038
:100050000C943E000C943E000C943E000C943E0028
:100060000C943E000C943E0011241FBECFEFD8E04C
:10007000DEBFCDBF0E94AA000C941C010C940000AE
:100080008AB1806F8AB987B1816087B987B18D7F66
:1000900087B984B1826084B9E0E8F0E08081826849
:1000A0008083E1E8F0E080818A6180838FE39CE9CE
:1000B0009093870080938600089525E1AC01249FEA
:1000C000C001259F900D112488519C4F9093890069
:1000D00080938800089588B18E7F88B92AE02A9598
:1000E000F1F700C088B1816088B985E38A95F1F79E
:1000F000000088B18E7F88B980E090E001C0019651
:1001000031990EC0883E2DEF9207C8F320E030E011
:1001100009C085E08A95F1F700002F5F3F4F02C0CC
:1001200020E030E0319B04C0283E8DEF380788F393
:10013000AFE9B6E40E940D01929582958F708927F0
:100140009F708927089580E58BB908958BB18F70D2
:100150008BB908950E9440008AE590E00E945D00FE
:100160002FEF83ED90E3215080409040E1F700C0F5
:1001700000000E946B00449708F04CC00E94A6004B
:100180002FEF89E698E1215080409040E1F700C0D0
:1001900000008AE090E00E945D002FEF89E698E180
:1001A000215080409040E1F700C000000E946B00A9
:1001B0008C018AEA90E00E945D002FEF89E698E1C9
:1001C000215080409040E1F700C000000E946B0089
:1001D000EC018AE590E00E945D002FEF89E698E14E
:1001E000215080409040E1F700C000000C171D072F
:1001F00018F480E98BB902C080E68BB92FEF89E64D
:1002000098E1215080409040E1F700C000000E943A
:10021000A600AFCF0E94A300ACCFA29FB001B39FB6
:10022000C001A39F700D811D1124911DB29F700DFF
:0C023000811D1124911D0895F894FFCF4A
:00000001FF
